:020000040800F2
:1000000068F1002049010008CB440008231D0008C6
:10001000C94400086F0B00086F4D00080000000085
:10002000000000000000000000000000CF440008B5
:10003000710B000800000000CD440008DB440008FC
:100040006301000863010008630100086301000800
:1000500063010008630100086301000863010008F0
:1000600063010008630100086301000863010008E0
:1000700063010008630100086301000863010008D0
:1000800063010008630100086301000863010008C0
:1000900063010008630100086301000863010008B0
:1000A000630100084145000863010008630100087E
:1000B0006301000863010008630100086301000890
:1000C0006301000863010008630100086301000880
:1000D0006301000863010008630100086301000870
:1000E0006301000863010008630100086301000860
:1000F0006301000863010008630100086301000850
:10010000630100086301000863010008630100083F
:10011000630100086301000863010008630100082F
:10012000630100086301000863010008630100081F
:10013000DFF810D000F0CCFC00480047C53B0208B7
:10014000AFF3008068F1002006488047064800476A
:10015000FEE7FEE7FEE7FEE7FEE7FEE7FEE7FEE777
:10016000FEE7FEE73D450008310100082DE9F05F9C
:100170000546002092469B46884606468146402416
:100180001BE0284641464746224600F020F85346E9
:100190005A46C01A914110D311461846224600F023
:1001A0005DFA2D1A67EB01084F4622460120002117
:1001B00000F054FA17EB00094E41201EA4F101048F
:1001C000DFDC484631462A464346BDE8F09F202AF8
:1001D00004DB203A21FA02F00021704721FA02F3F1
:1001E000D040C2F12002914008431946704710B533
:1001F000431A934209D28318881803E010F8011DAE
:1002000003F8011D521EF9D210BD40EA01039B07FD
:1002100003D009E008C9121F08C0042AFAD203E07B
:1002200011F8013B00F8013B521EF9D210BDD2B2C9
:1002300001E000F8012B491EFBD270470022F6E7CF
:1002400010B513460A4604461946FFF7F0FF20464C
:1002500010BD421C10F8011B0029FBD1801A704709
:1002600010B5002200E0521C835C8C5CA34201D1DB
:10027000002BF8D1D8B2E1B2401A10BD034611F8F4
:10028000012B00F8012B002AF9D118467047F0B471
:1002900080EA0102D40F4200B2EB410F02D20246C3
:1002A000084611464A0042D0C30DDDB2C1F3C75221
:1002B000AD1A202D35DAC1F3160141F4000204B164
:1002C0005242C5F1200602FA06F12A411044B3EB6E
:1002D000D05F23D0C4B1012DA0EBC35009DCF0BC2A
:1002E0004FF0004202EAC352DBB200F5000000F01A
:1002F000CDB9400000F1807000EBC350A0F18070D8
:1003000040EAD170490009E0490841EAC071A0EB18
:10031000C35000F50000400800EBC350F0BC00F0F3
:10032000ACB96142012202EB4101001BF6E7F0BCCF
:10033000704781F00041AAE780F00040A7E780EA1B
:10034000010210B502F00043400022D04A001FD045
:10035000010E01EB1261C0F35600C2F3560240F4E5
:10036000000042F40002A0FB022000047F391404C4
:1003700000D0401C50EA124001D44000491EC2B2D5
:100380000C0604EBD010401C4008802A02D003E089
:10039000002010BD20F00100002900DA00201843E1
:1003A00010BD30B480EA010202F0004530F0004296
:1003B00021F0004013D090B1C30DD40DC2F316014B
:1003C000C0F31600E41A41F4000140F400027D3449
:1003D000914201D3641C00E04900002C02DA30BCD9
:1003E000002070474FF400000023914201D3891A86
:1003F000034340084FEA4101F7D151B1914202D184
:100400004FF0004105E002D24FF0010101E06FF032
:10041000010103EBC450284430BC00F02EB9420067
:1004200005D0C0F3C7525242914201DC0020704710
:1004300000EBC15070472DE9FE4F81EA030404F040
:10044000004421F0004100944FF0000B23F00043E2
:1004500050EA01045ED052EA03045BD0C3F30A54AD
:10046000C1F30A552C44A4F2F3340194A0FB0254C6
:10047000C1F3130141F48011C3F3130343F4801358
:1004800001FB024400FB034E840A970A44EA8154AC
:1004900047EA8357A4FB076802958D0A05FB078589
:1004A0004FEA932C04FB0C542705029D4FEA065893
:1004B00047EA1637B5EB08056EEB070C870E920E70
:1004C00047EA811742EA8312A7FB0201B6EB0B0150
:1004D00064EB00042B0D43EA0C335E1844EB1C5014
:1004E000DA465146E7FB0201C5F313044FEA0B332A
:1004F00043EA14534FEA0432019C43EA0603A4F191
:100500000C040294009CCDE900B400F0FCF803B0A8
:10051000BDE8F08F00200146F9E770B521F00043F7
:1005200003430CD0C1F30A550024D5EB040564EB5A
:100530000403D617AD1AB34102DB0020014670BD9B
:10054000201841EB025170BDC10F80EAE0700844F1
:10055000CA079623002100F099B89623002211467D
:1005600000F094B80EB540F2334102910021CDE97C
:1005700000110A460B4600F0C6F803B000BD00F0BB
:10058000004220F00040C10DC0F3160040F400000E
:100590007F2901DA00207047962903DCC1F196011A
:1005A000C84001E096398840002AF4D040427047A4
:1005B00020F00040C10DC0F3160040F400007F2978
:1005C00001DA00207047962903DCC1F19601C8408A
:1005D0007047963988407047C1F30A5210B5C1F38D
:1005E000130140F2FF3341F480119A4201DA0020F6
:1005F00010BD40F233439A42A2F2334203DC52422E
:10060000FFF7E5FD10BD904010BD00F0004230F056
:1006100000400AD0C10D01F56071C0F3160042EA36
:100620000151C2084007114370470020014670473E
:1006300030B50B46014600202022012409E021FAB2
:1006400002F59D4205D303FA02F5491B04FA02F5AF
:100650002844151EA2F10102F1DC30BD202A04DB82
:10066000203A00FA02F1002070479140C2F12003C5
:1006700020FA03F31943904070470029A8BF704740
:10068000401C490008BF20F00100704710B4B0FAC8
:1006900080FC00FA0CF050EA010404BF10BC704763
:1006A00049B1CCF1200421FA04F411FA0CF118BF7D
:1006B000012121430843A3EB0C01CB1D4FEA00614C
:1006C0004FEA102042BF002010BC704700EBC3501F
:1006D00010440029A4BF10BC7047401C490008BF4B
:1006E00020F0010010BC704710B5141E73F1000417
:1006F00008DA401C41F1000192185B411A4301D114
:1007000020F0010010BD2DE9F04D92469B4611B13D
:10071000B1FA81F202E0B0FA80F220329046FFF79F
:100720009DFF04460F4640EA0A0041EA0B0153468A
:100730005A46084313D0114653EA010019D0C8F1B4
:1007400040025046FFF743FD05460E4650465946C7
:100750004246FFF783FF084305D0012004E020460E
:100760003946BDE8F08D0020054346EAE0762C438B
:1007700037430A986305E40AA0EB08000022FD0A4B
:1007800044EA47540A3002D500200146E9E7010552
:1007900010196941DDE9084500196941BDE8F04DCE
:1007A000A2E72DE9FE4F804681EA0300C00F0C4608
:1007B000009021F0004123F00045B8EB0200A94170
:1007C00005D24046214690461C460B46024623F081
:1007D0000040104347D0270DC7F30A00C3F30A5166
:1007E0000290401A019040286BDAC3F3130040F4E2
:1007F000801B0098924620B10023D2EB030A63EBE2
:100800000B0B01985946C0F140025046FFF726FFF6
:1008100006460D4650465946019A00F06BF910EB1A
:1008200008006141002487EA115284EAE7731A4301
:1008300040D0009A62B3019A012A4FEA075215DCB0
:10084000001B61EB02014FF0004202EA0752CDE9C2
:100850000042001C41F5801132462B46FFF753FF42
:1008600003B0BDE8F08F40462146F9E7001B61EB7D
:100870000201001C41F5801300185B412018A2F50D
:10088000001747EB030140EAD570B6196D4111E03E
:100890006D084FEA360645EAC0754FEA0752001B5D
:1008A00061EB0201001C41F5801149084FEA30005C
:1008B0000019514132462B4603B0BDE8F04FFFF717
:1008C00013BF0098012240000023D0EB020263EB2B
:1008D000E073009821464FEAE074B8EB000061EB4A
:1008E0000401E9E783F000435BE781F0004158E74A
:1008F0002DE9F04D81EA030404F0004B21F000459E
:1009000014464FF0000A23F0004150EA050220D0BF
:1009100054EA01021DD0C5F30A570246C5F313037A
:10092000C1F31300C1F30A5640F4801543F4801359
:10093000A7EB0608101BD64608F2FD3873EB05003E
:1009400002D308F1010801E092185B41B8F1000FF1
:1009500003DA00200146BDE8F08D00204FF480113D
:10096000064684460EE0171B73EB050705D3121BE2
:1009700063EB050306434CEA010C49084FEA3000DB
:1009800092185B4150EA0107EDD152EA030012D000
:1009900082EA040083EA0501084305D0101BAB413D
:1009A00006D20122002306E000224FF0004302E0BD
:1009B0006FF0010253101AEB06004CEB085110EBDC
:1009C0000A0041EB0B01BDE8F04DFFF78DBE2DE9AC
:1009D000F04D00231A461B1A8A4103DB0020014612
:1009E000BDE8F08DC1F30A52C1F3130141F4801543
:1009F0004FF0000BD10702D100186D41521E0027A5
:100A0000044640F2FF11384601EB620A3E4680463A
:100A1000024600204FF48011FFF7D9FBC219714143
:100A2000BB1846EB0100B4EB030C75EB000C04D3D0
:100A3000E41A65EB000517460E46241908F101007B
:100A40006D4180463428E3DDF91946EB0600091BA9
:100A5000A84103D24FF0FF32134601E000221346B3
:100A60001BEB070046EB0A51BDE8F04DFFF73CBE1B
:100A7000C1F30A52C1F3130140F2FF3341F4801174
:100A80009A4202DA00200146704740F233439A420C
:100A9000A2F2334202DC5242FFF799BBFFF7DEBD00
:100AA00030B5041E71F1000404DB4FF000444042F5
:100AB00064EB0101141E73F1000405DB1C464FF0CA
:100AC0000043524263EB0403994208BF904230BD99
:100AD000064C074D06E0E06840F0010394E807008B
:100AE00098471034AC42F6D3FFF726FB64E10208C6
:100AF00084E10208202A06DBCB17203A41FA02F0F3
:100B000043EAE07306E041FA02F3D040C2F120026A
:100B1000914008431946704770B58C1810F8015B76
:100B200015F0070301D110F8013B2A1106D110F886
:100B3000012B03E010F8016B01F8016B5B1EF9D18A
:100B40002B0705D40023521E0DD401F8013BFAE710
:100B500010F8013BCB1A921C03E013F8015B01F87B
:100B6000015B521EF9D5A142D8D3002070BDFEE72B
:100B7000704710B5044601F0C5F9200AA02101EB29
:100B80004000C0B201F086F901F014FAE0B201F0C1
:100B900081F901F00FFA01F0B5F9A12001F07AF91D
:100BA00001F008FA002001F039F9044601F002FAD8
:100BB00001F0D4F9204610BD70B50D46044601F091
:100BC000A1F9200AA02101EB4000C0B201F062F9B6
:100BD00001F0F0F9E0B201F05DF901F0EBF928461F
:100BE00001F058F901F0E6F901F0B8F9BDE87040FC
:100BF0000A2008F0E1B972B6FEE7000030B5B3F59F
:100C0000804F05D06FF0704140F82210002030BDB9
:100C10008C690B688D6823434C688989240144EAF8
:100C20000524234343EA014150F82230014C23407C
:100C30001943E9E70000F0CF10B50A6850F82230F8
:100C400023F0010340F822308C68082C23D00023C5
:100C50004A682243CC681C430B6922431A434B6900
:100C60000E4C1A43CB691A430B6A1A434B6A1A4358
:100C70008B6A1A43CB6A1A430B6B1A438B69134373
:100C80004A6B09681A4350F82130A343134340F8D4
:100C90002130002010BD4023DAE700007FFF0F0065
:100CA00030B5D1E9003443EA04138C688D892402FD
:100CB00044EA054423430C8A094D00EB820005EB0E
:100CC000045423430C7D6D0105EB046489692343BF
:100CD0000B43416801F040410B434360002030BDAD
:100CE0000000F0FF7047000070B5044600F054F9B2
:100CF0000546601C02D004480078044400F04CF91A
:100D0000401BA042FAD370BD0800002030B585B06A
:100D1000002000900190029003901748016800297C
:100D200027D1012101601548416941F48071416179
:100D30004069022400F48070049041F20100CDE982
:100D400000040325694603950D4800F01FF84FF68F
:100D50008070CDE90004694603950A4800F016F852
:100D60004CF23370CDE9000469460395064800F063
:100D70000DF805B030BD000000000020001002405A
:100D80000020014000180140001401402DE9F84FF7
:100D9000DFF8C8910024A9F1040B23460F2709F1BD
:100DA000040AABF1040ED1E00125A54006EA0502D4
:100DB000AA4276D1DFF8A8C14E68A6EB0C086645BA
:100DC0002BD00DDC032E34D005DC36B3012E19D028
:100DD000022E2FD11BE0112E16D0122E2AD119E08F
:100DE000B8F5881F19D006DCB8F5803F15D0B8F5E6
:100DF000801F1FD111E0B8F5001F0ED0B8F5041FF9
:100E000018D10AE0CB6815E0CB681B1D12E0CB6857
:100E100008330FE0CB680C330CE08B682BB1012B4F
:100E20004FF0080303D0456104E0042302E00561AC
:100E300000E00023FF2A01D8064601E000F1040685
:100E40004FEA840501D9A5F12005D6F8008007FAFC
:100E500005FC28EA0C0803FA05F548EA0508C6F877
:100E600000804D68ED0070D53E4DAE6946F001063C
:100E7000AE61AD6924F0030605F0010500953A4D19
:100E800006EB050CDCF80850A607360F07FA06F843
:100E900025EA0805DFF8D480404503D14FF000086B
:100EA00025E052E0DFF8C880404502D14FF001084C
:100EB0001DE0DFF8C080404502D14FF0020816E087
:100EC000DFF8B480404502D14FF003080FE0DFF8AF
:100ED000AC80404502D14FF0040808E0DFF8A08064
:100EE000404502D14FF0050801E04FF0060808FA2E
:100EF00006F848EA0508CCF808804D68D9F8006083
:100F0000ED024D4601D5164300E096432E604D6834
:100F1000DAF80060AD02554601D5164300E096436D
:100F20002E604D68DBF80060AD035D4601D51643C9
:100F300000E096432E604D68DEF80060ED037546D4
:100F400001D5164300E096432E60641C0A681646DD
:100F5000E2407FF429AFBDE8F88F000008040140AB
:100F60000000111000100240000001400008014084
:100F7000000C014000100140001401400018014025
:100F8000001C01408068084000D0012070470AB171
:100F9000016170470904FBE7014880687047000061
:100FA000080000200248816802781144816070477F
:100FB00008000020074810B5016841F010010160E9
:100FC000032000F075F80F2000F006F800F024F878
:100FD000002010BD0020024070B50D4D04464FF4B6
:100FE0007A712878B1FBF0F00A490968B1FBF0F09A
:100FF00000F0D0FB48B9102C07D200222146501E29
:1010000000F036F800206C6070BD012070BD00005B
:1010100008000020140000200C4808B5816941F048
:1010200001018161816901F001010091C16941F013
:101030008051C161C06900F080500090044841684F
:1010400021F0E06141F00071416008BD00100240F4
:1010500000000140002809DB00F01F02012191403F
:101060004009800000F1E020C0F800117047000046
:10107000F0B40E4B1B680C46C3F30223C3F1070503
:10108000042D00D90425191D072901D2002300E0F1
:10109000DB1E012606FA05F1491E214099409E40BB
:1010A000761E16403143F0BC03F072BE0CED00E03A
:1010B000064900F0070208684FF6FF03184040EAAF
:1010C0000220034A10430860704700000CED00E066
:1010D0000000FA052DE9F0470F46050061D0434EA8
:1010E000306800F00700B84209D2306820F00700ED
:1010F00038433060306800F00700B84251D12868AA
:101100003B4C810712D5400703D5606840F4E0608E
:1011100060602878000703D5606840F46050606024
:101120006068A96820F0F000084360602878C00774
:1011300028D06868012810D02168022810D08907BB
:1011400000292EDA616821F0030101436160FFF795
:1011500023FF804641F288390DE021688903EFE7DB
:101160008901EDE7FFF718FFA0EB0801494502D917
:101170000320BDE8F0876068696800F00C00B0EB00
:10118000810FEFD1306800F00700B8420BD930680A
:1011900020F0070038433060306800F00700B842A4
:1011A00001D00120E5E72878400705D56068E968A7
:1011B00020F4E060084360602878000706D5606886
:1011C000296920F4605040EAC100606000F038F8FE
:1011D0006168084AC1F30311515CC84006490860C0
:1011E00006480068FFF7F8FE0020C2E70020024032
:1011F000001002401A830208140000200C00002096
:101200000448054900684968044AC1F30221515C59
:10121000C840704714000020001002402A830208D2
:101220000448054900684968044AC1F3C221515C79
:10123000C840704714000020001002402A830208B2
:101240000E4A51680E4801F00C03042B11D0082BF4
:101250000FD10C48C1F38343C903C05C0AD5516860
:10126000084AC1F34041921E515C054A5043B0FB0D
:10127000F1F07047044948437047000000100240F5
:1012800000127A000A83020800093D002DE9F84F98
:10129000040070D02078C04DC00749D06868C0F302
:1012A0008100012807D06868C0F38100022809D1B5
:1012B0006868C00306D52868800339D560680028AF
:1012C000E7D035E06068B0F5803F0BD010B1B0F5E5
:1012D000A02F11D0286820F480302860286820F4DE
:1012E000802002E0286840F480302860606890B177
:1012F000FFF752FE06460AE0286840F48020286086
:10130000F0E700BFFFF748FE801B642873D8286809
:101310008003F7D50CE0FFF73FFE064605E000BF6F
:10132000FFF73AFE801B6428F0D828688003F7D4C2
:1013300020789A4E80074FF001094FF0000839D508
:10134000686810F00C0F07D06868C0F381000228AD
:1013500009D16868C00306D42868800714D52069BD
:10136000012808D110E02069B0B1C6F80090FFF75D
:1013700013FE074605E00AE1FFF70EFEC01B022838
:10138000C4D828688007F7D52868616920F0F8007C
:1013900040EAC10028600DE0C6F80080FFF7FCFDC0
:1013A000074604E0FFF7F8FDC01B022823D8286891
:1013B0008007F7D4207800072CD57948A169D9B1E6
:1013C000C0F80090FFF7E8FD074604E0FFF7E4FDF2
:1013D000C01B02280FD8686A8007F7D571484FF400
:1013E000FA510068B0FBF1F0009000BF0098411E78
:1013F0000091FAD20EE080E0C0F80080FFF7CCFD4B
:10140000074604E0FFF7C8FDC01B022875D8686ACC
:101410008007F7D42078400760D5E8690027C0002E
:1014200008D4E86940F08050E861E869012700F0DD
:10143000805000905C480168C90513D40168834658
:1014400041F480710160FFF7A7FD824606E000BF0E
:10145000FFF7A2FDA0EB0A0064284ED8DBF80000DD
:10146000C005F5D5E06801280AD008B1052813D0D9
:10147000286A20F001002862286A20F0040002E0B7
:10148000286A40F001002862E06841F2883B98B188
:10149000FFF782FD82460BE0286A40F004002862D4
:1014A000EEE700BFFFF778FDA0EB0A0159455AD8D7
:1014B000286A8007F6D50CE0FFF76EFD824605E04E
:1014C000FFF76AFDA0EB0A0159454CD8286A80074E
:1014D000F6D41FB1E86920F08050E861E06988B374
:1014E0006968C1F38101022944D00228C6F86080EE
:1014F00004D0FFF751FD044638E034E0FFF74CFD1F
:10150000074604E0FFF748FDC01B02282BD82868D7
:101510008001F7D4206AB0F5803F05D16868A168E2
:1015200020F4003008436860D4E908010843696882
:1015300021F4741108436860C6F86090FFF72CFD31
:10154000044606E025E000BFFFF726FD001B022849
:1015500009D828688001F7D51BE000BFFFF71CFD04
:10156000001B022802D90320BDE8F88F28688001FB
:10157000F4D40EE00128F7D06868226A00F48031C4
:10158000914204D1616A00F47010884201D00120B8
:10159000EAE70020E8E700000010024000004242B5
:1015A00080044242140000200070004070B5040026
:1015B00009D0606A002540B125616561A56294F893
:1015C000510040B10CE0012070BD6068B0F5827F31
:1015D000F4D0E561F2E784F85050204600F040F87E
:1015E000022084F851002068016821F04001016068
:1015F000A088218900F4827001F404410843A18984
:1016000001F400610843217C01F002010843217DBF
:1016100001F001010843218B01F400710843217F8F
:1016200001F03801084394F8201001F080010843CC
:10163000218D01F40051084321680860A06904214C
:1016400001EA1040216848602068C16921F4006106
:10165000C1616565012084F85100002070BD000063
:1016600030B585B000240094019402940394244D75
:101670000368244802210322AB421AD1836943F450
:1016800080538361836903F480530493836943F037
:101690000403836180691C4D00F004000490A020C5
:1016A000CDE90001039269462846FFF76FFB402011
:1016B0001CE0164DAB4220D1C36943F40043C36123
:1016C000C36903F400430493836943F0080383610F
:1016D00080690F4D00F0080004902820CDE900013A
:1016E000039269462846FFF751FB1020CDE900041C
:1016F000694628460294FFF749FB05B030BD00005B
:10170000003001400010024000080140003C004051
:10171000000C014070B515460E46040007D0A069C4
:10172000B0F5807F03D094F8410010B107E00120AC
:1017300070BD002084F84000204600F01DF804F140
:1017400008012068FFF778FA3146A2682068FFF7A1
:10175000A7FAD4E901022946236BFFF74FFAA168E3
:10176000206850F8212042F0010240F82120012099
:1017700084F84100002070BDFFF7C8BA4FF0E021A7
:101780000428086903D020F004000861704740F085
:101790000400FAE710B5401EB0F1807F01D30120AC
:1017A00010BD4FF0E02460610F21601703F0F0FAE4
:1017B0000020A06107202061002010BD7047704705
:1017C00070B590F83C20012A2CD0012480F83C40D0
:1017D000022280F83D2003685A689D6822F0700656
:1017E0000A6832435A60104B02689A420ED00F4B7F
:1017F0009A420BD0B2F1804F08D00D4B9A4205D0DF
:101800000C4B9A4202D00C4B9A4204D1496825F005
:1018100080031943916080F83D40002180F83C101E
:10182000084670BD022070BD002C0140003401400C
:101830000004004000080040000C004010B5040007
:1018400003D094F83D0010B107E0012010BD002046
:1018500084F83C00204600F01FF8022084F83D0088
:10186000211D206802F072FE012084F8460084F8F1
:101870003E0084F83F0084F8400084F8410084F87A
:10188000420084F8430084F8440084F8450084F85A
:101890003D00002010BD000008B500680B498842DB
:1018A00012D10B48816941F4006181618069002295
:1018B00000F40060009011461920FFF7D9FBBDE845
:1018C00008401920FFF7C6BB08BD0000002C0140EE
:1018D0000010024090F83D10012901D0012070470E
:1018E000022180F83D100168CA6842F00102CA6016
:1018F00000680E4988420ED00D4988420BD0B0F1E5
:10190000804F08D00B49884205D00B49884202D04D
:101910000A49884204D1816801F00701062903D0F1
:10192000016841F00101016000207047002C014076
:10193000003401400004004000080040000C00405A
:1019400070B5044690F83C000025012817D0012608
:1019500084F83C60022084F83D002068826822F010
:10196000770222F47F4282600868502838D00DDC6C
:1019700020284FD005DC90B3102811D14AE0022076
:1019800070BD302846D040280AD13BE060282FD0D7
:1019900070280DD0B0F5805F03D0B0F5005F12D095
:1019A000012584F83D60002084F83C00284670BD85
:1019B000CB68D1E90121206802F00EFE2068816821
:1019C00041F0770109E0CB68D1E90121206802F0FC
:1019D00003FE2068816841F480418160E1E719E0FD
:1019E000CA684968206802F009FE5021206806E0B4
:1019F000CA684968206802F012FE6021206802F07F
:101A0000F5FDCEE7CA684968206802F0F7FD40217D
:101A10002068F4E7226801461046F0E7704770B589
:101A20000446006801694FF00005C943890715D4D1
:101A3000C168C943890711D4E91E016101202077DB
:101A4000206880698007204602D0FFF7E7FF04E0A6
:101A500000F098F8204600F096F825772068016994
:101A6000C943490717D4C168C943490713D46FF064
:101A700004010161022020772068806910F4407F12
:101A8000204602D0FFF7CAFF04E000F07BF82046B2
:101A900000F079F8257720680169C943090716D451
:101AA000C168C943090712D46FF00801016104201D
:101AB00020772068C0698007204602D0FFF7AEFF7C
:101AC00004E000F05FF8204600F05DF8257720681C
:101AD0000169C943C90617D4C168C943C90613D4EB
:101AE0006FF010010161082020772068C06910F4B0
:101AF000407F204602D0FFF791FF04E000F042F85B
:101B0000204600F040F8257720680169C943C907DD
:101B100008D1C168C943C90704D1891E01612046A3
:101B200000F032F820680169C943090609D4C16888
:101B3000C943090605D46FF0800101612046FFF713
:101B40003DFE20680169C943490609D4C168C943FB
:101B5000490605D46FF040010161204600F028F8E5
:101B600020680169C94389060BD4C168C943890645
:101B700007D46FF0200101612046BDE87040FFF7F7
:101B80001EBE70BD7047704710B500680549884299
:101B900007D105A003F0ECF8BDE81040012021F0CA
:101BA000FBBA10BD002C01403132330A00000000A6
:101BB000704770B5040004D094F84100002510B1BE
:101BC00006E0012070BD84F84050204600F024F863
:101BD000242084F841002068C16821F40051C160CC
:101BE000204603F029F82068016921F49041016141
:101BF0002068416921F02A0141612068C16841F4EF
:101C00000051C1606564202084F8410084F84200DE
:101C10006563002070BD000030B585B000240094DD
:101C200001940294039400681449884224D1144812
:101C3000816941F480418161816901F480410491AD
:101C4000816941F00401816180690E4D00F004005A
:101C500004904FF400700090022001900320039044
:101C600069462846FFF792F82815CDE90004694631
:101C700028460294FFF78AF805B030BD00380140CD
:101C800000100240000801402DE9F843044690F896
:101C900041001F4616460D46202802D00220BDE80E
:101CA000F8837DB176B100206064212084F8410082
:101CB000FFF772F9A6848046E684A068B0F5805FDD
:101CC00002D003E00120EAE7206910B12E4600258A
:101CD0000EE000260CE08021204603F009F8A0B9B0
:101CE000AEB116F8010B21684860E08C401EE0841C
:101CF000E08C43464FF0000200970028EBD14FF0F4
:101D00004001204602F0F4FF30B10320C7E735F868
:101D1000020BC0F30800E6E7202084F84100002011
:101D2000BDE7FEE710B5124C002240212046FFF728
:101D30002EF9206820F070402060206840F040506C
:101D40002060002280212046FFF721F9022007F0C1
:101D500041F9012240212046FFF719F9022007F03E
:101D600039F920460022BDE810404021FFF70FB9A5
:101D7000000C0140114810B5816986B041F008019E
:101D8000816180690E4C00F008000490C020009032
:101D90000120019002900320039069462046FEF73F
:101DA000F5FF012240212046FFF7F1F801228021B2
:101DB0002046FFF7ECF806B010BD0000001002400E
:101DC000000C014010B5144C002240212046FFF7C2
:101DD000DEF8206820F070402060206840F040501D
:101DE0002060022007F0F6F8012280212046FFF74C
:101DF000CEF8022007F0EEF8012240212046FFF73E
:101E0000C6F8022007F0E6F820460022BDE81040A0
:101E10004021FFF7BCB80000000C01402DE9F04163
:101E20001B4F064600252A4640213C463846FFF710
:101E3000AEF8206820F070402060206840F000403C
:101E400020600024012240213846FFF7A0F802203C
:101E500007F0C0F86806050E80213846FFF792F8B3
:101E600008B16D1CEDB2002240213846FFF78FF813
:101E7000022007F0AFF8641CE4B2082CE2D316B1DC
:101E8000FFF750FF01E0FFF79DFF2846BDE8F08116
:101E9000000C014070B51A4E054600224021344620
:101EA0003046FFF774F8206820F07040206020680A
:101EB00040F0405020600024280601D5012200E0B7
:101EC000002280213046FFF762F86806050E0220E6
:101ED00007F080F8012240213046FFF758F8022031
:101EE00007F078F8002240213046FFF750F8022032
:101EF00007F070F8641CE4B2082CDDD370BD00005C
:101F0000000C014010B5144C206820F07040206097
:101F1000206840F040502060012280212046FFF7D9
:101F200036F8012240212046FFF731F8042007F05F
:101F300051F8002280212046FFF729F8042007F0FD
:101F400049F8002240212046FFF721F8BDE8104063
:101F5000022007F03FB80000000C014010B5144CFF
:101F6000002240212046FFF712F80022802120465F
:101F7000FFF70DF8206820F070402060206840F0E6
:101F800040502060042007F025F80122402120461F
:101F9000FEF7FDFF022007F01DF8012280212046F8
:101FA000FEF7F5FFBDE81040042007F013B800006D
:101FB000000C014070B5164C00252A4640212046F1
:101FC000FEF7E5FF206820F070402060206840F0B8
:101FD00000402060012240212046FEF7D8FF022069
:101FE00006F0F8FF07E06D1CEDB2FA2D03D9FFF7FC
:101FF000B5FF012070BD80212046FEF7C3FF0028F9
:10200000F1D1002240212046FEF7C1FF002070BD23
:10201000000C01402DE9FF4F81B014460E4680466A
:102020000025624203210E9801EB4209E8B391E0DA
:10203000371908EB050BB9B21FFA8BF0049A00F0C0
:10204000C7F8A8EB050AB9B21FFA8AF0049A00F0A3
:10205000BFF8371BB9B21FFA8BF0049A00F0B8F83A
:10206000B9B21FFA8AF0049A00F0B2F8771908EBB7
:10207000040BB9B21FFA8BF0049A00F0A9F8A8EB90
:10208000040AB9B21FFA8AF0049A00F0A1F8771B8B
:10209000B9B21FFA8BF0049A00F09AF8B9B21FFA9D
:1020A0008AF0049A00F094F800E00EE0B9F1000F15
:1020B00004DA09EB850000F1060905E0291B09EBAC
:1020C000810000F10A09641E6D1CA542B0DD05B057
:1020D000BDE8F08F301BA8EB050708EB050A06EBFF
:1020E000040B00900DE000BF1FFA8BF1B8B2049A08
:1020F00000F06EF80098049A81B2B8B200F068F867
:102100007F1CBA45F0DA701BA8EB040708EB040A41
:1021100006EB050B00900CE01FFA8BF1B8B2049AA5
:1021200000F056F80098049A81B2B8B200F050F866
:102130007F1CBA45F0DAB9F1000F04DA09EB85002B
:1021400000F1060905E0291B09EB810000F10A09ED
:10215000641E6D1CA542BDDDB9E72DE9FC4F0746A5
:102160009A4690460E46D41B00D56442BAEB060050
:1021700000D5404281464FF0FF30474501D2012152
:1021800000E001460191564500D201208346C9F185
:102190000000A4EB09050090314638460B9A00F088
:1021A00017F8474501D156450FD00099680088427D
:1021B00004DD0199A5EB090539448FB2A042EBDAA1
:1021C00006EB0B00254486B2E6E7BDE8FC8F000075
:1021D00010B5144600F064F803482146008BBDE8B2
:1021E000104000F08BB90000A80300202DE9FF4F3C
:1021F0000E46981B81B0401C87B20198DFF85CB096
:10220000101A401C85B20024DFF84CA00BF1020923
:10221000DDF838801BE0301981B2019800F040F8F9
:10222000BAF81800ADF80000BDF80010ABF80010C7
:102230000020494607E000BF04FB050338F81320DF
:102240000A80401C80B2A842F6D3641CA4B2BC42EF
:10225000E1D305B0BDE8F08FA8030020FE07006CB5
:10226000034808B50088ADF80000BDF8000008BDBF
:102270000008006C0348438A028AC189808900F003
:1022800045B80000A8030020044B08B1012200E07B
:10229000002201211846FEF77ABE0000000C014022
:1022A00038B5184B5A88521E824229DB9A88521E32
:1022B0008A4225DB9A8AADF80020BDF80020124C36
:1022C0002280020AADF80020BDF80050A21C158043
:1022D000C0B2ADF80000BDF800001080D88AADF89B
:1022E0000000BDF800002080080AADF80000BDF82D
:1022F00000001080C8B2ADF80000BDF800001080EA
:1023000038BD0000A8030020FE07006CF8B581422C
:102310004AD9934248D9254D6C888C4201D8641E15
:10232000A1B2AC889C4201D8641EA3B2AC8AADF8BD
:102330000040BDF800401E4E3480040AADF8004055
:10234000BDF80070B41C2780C0B2ADF80000BDF825
:1023500000002080080AADF80000BDF800002080D1
:10236000C8B2ADF80000BDF800002080E88AADF8E2
:102370000000BDF800003080100AADF80000BDF884
:1023800000002080D0B2ADF80000BDF80000208031
:10239000180AADF80000BDF800002080D8B2ADF8F2
:1023A0000000BDF800002080F8BD0000A803002058
:1023B000FE07006C2DE9FF4F064681B01D46924690
:1023C00088460C461846FEF7CDF86FF00202FEF77D
:1023D000A4F805F0D9FF074689466808FEF7C2F859
:1023E0003A464B46FEF727F8FEF7F6F8C0B20090E3
:1023F000AAF12000C0B24FF00009DFF898B00390B6
:1024000041E00C2D13D0102D16D0182D3ED103987D
:10241000214900EBC00000BF01EB80014FF0000A32
:1024200011F8097038060CD5BBF806200DE00398AA
:102430001A4900EB4000EFE71949039801EB00113E
:10244000ECE70E9828B9BBF8082021463046FFF784
:10245000BFFE7806641C070EA4B2A4EB0800A842D5
:1024600002DB761C4446B6B2BBF80410A1420DD97B
:10247000BBF80200B04209D90AF1010ABAF1080F0B
:10248000D0DB09F1010900998945BADB05B0BDE847
:10249000F08F0000A8030020968D02083283020806
:1024A000A68702082DE9F84F9846164607460446C7
:1024B0000D46DFF84490DDF828A016E04346294693
:1024C0002046CDF800A0FFF775FF04EB5800B9F8DF
:1024D000021084B2A14207D805EB0801B9F8040044
:1024E0008DB23C46A84205D9761C3278A2F1200074
:1024F0005E28E3D9BDE8F88FA803002003B581B0BA
:10250000BDF80400ADF80000BDF8000005490880E2
:10251000BDF80800ADF80000BDF80000891C088077
:102520000EBD0000FE07006C78B52B4A908AADF80E
:102530000000BDF80000294C20800023ADF80030D9
:10254000BDF80010A01C0180ADF80030BDF80010EF
:102550000180558829466D1E2E0AADF80060BDF831
:1025600000600680EDB2ADF80050BDF80050058067
:10257000D58AADF80050BDF800502580ADF8003088
:10258000BDF800500580ADF80030BDF80030038084
:1025900093881D465B1E1E0AADF80060BDF8006002
:1025A0000680DBB2ADF80030BDF800300380128B3E
:1025B000ADF80020BDF800202280694300224FF6CC
:1025C000FF7305E0ADF80030BDF800400480521CF8
:1025D0008A42F7D378BD0000A8030020FE07006CF4
:1025E00008B5D420ADF80000BDF800000B49088004
:1025F000891C0888ADF80000BDF800000888ADF817
:102600000000BDF80000FFF72BFE4FF6FF7101EA56
:102610000021FFF725FE084308BD0000FE07006CFF
:1026200070B5174C00254FF478402581E080A572E5
:10263000FFF7D6FF20801349E16113492162134956
:102640006162A0F5A64110390DD14FF4A0706080F1
:102650004FF4F070A0802C2020832A20A0822B2011
:10266000E08200F015F8A5816088401EE081258297
:10267000A088401E6082BDE870400120FFF704BEC4
:10268000A8030020A52400082925000875220008B9
:102690002DE9F84FED20ADF80000BDF80000FE4E2A
:1026A00030800120ADF80000BDF80000B51C288086
:1026B000FE20ADF80000BDF800002880EE20ADF847
:1026C0000000BDF800003080DE20ADF80000BDF84D
:1026D000000028802120ADF80000BDF8000028800F
:1026E000F120ADF80000BDF8000030800120ADF809
:1026F0000000BDF800002880DF20ADF80000BDF824
:10270000000030801020ADF80000BDF800002880E7
:10271000C420ADF80000BDF8000030808F20ADF877
:102720000000BDF800002880C620ADF80000BDF80C
:10273000000030800024ADF80040BDF80000288083
:10274000E220ADF80000BDF800102980ADF80000CF
:10275000BDF800102980ADF80000BDF80000288009
:10276000BF20ADF80000BDF800003080AA20ADF811
:102770000000BDF800002880B020ADF80000BDF8D2
:10278000000030800D20ADF80000BDF8000028806A
:10279000ADF80040BDF8000028800D20ADF8000025
:1027A000BDF800002880ADF80040BDF8000028808A
:1027B0001120ADF80000BDF800002880ADF8004001
:1027C000BDF8000028801920ADF80000BDF8000019
:1027D0002880ADF80040BDF8000028802120ADF829
:1027E0000000BDF800002880ADF80040BDF80000F2
:1027F00028802D20ADF80000BDF800002880ADF83D
:102800000040BDF8000028803D20ADF80000BDF874
:1028100000002880ADF80040BDF8000028805D2051
:10282000ADF80000BDF800002880ADF80040BDF80C
:10283000000028805D20ADF80000BDF80000288071
:10284000ADF80040BDF800002880B120ADF80000D0
:10285000BDF8000030808020ADF80000BDF8000019
:102860002880ADF80040BDF8000028804FF08B08AC
:10287000ADF80080BDF800002880ADF80040BDF83C
:10288000000028809620ADF80000BDF800002880E8
:10289000ADF80040BDF800002880B220ADF800007F
:1028A000BDF800003080ADF80040BDF80000288081
:1028B000ADF80040BDF8000028800220ADF800000F
:1028C000BDF800002880ADF80040BDF80000288069
:1028D0000320ADF80000BDF800002880ADF80040EE
:1028E000BDF800002880B320ADF80000BDF800005E
:1028F0003080ADF80040BDF800002880ADF8004001
:10290000BDF800002880ADF80040BDF80000288028
:10291000ADF80040BDF800002880ADF80040BDF8DB
:1029200000002880ADF80040BDF800002880ADF818
:102930000040BDF800002880ADF80040BDF8000060
:102940002880ADF80040BDF800002880ADF80040B8
:10295000BDF800002880ADF80040BDF800002880D8
:10296000ADF80040BDF800002880ADF80040BDF88B
:1029700000002880ADF80040BDF800002880ADF8C8
:102980000040BDF800002880ADF80040BDF8000010
:102990002880ADF80040BDF800002880ADF8004068
:1029A000BDF800002880ADF80040BDF80000288088
:1029B000ADF80040BDF800002880ADF80040BDF83B
:1029C00000002880ADF80040BDF800002880ADF878
:1029D0000040BDF800002880ADF80040BDF80000C0
:1029E0002880B420ADF80000BDF8000030808B20B6
:1029F000ADF80000BDF800002880ADF80040BDF83B
:102A0000000028809620ADF80000BDF80000288066
:102A1000ADF80040BDF800002880A120ADF800000E
:102A2000BDF800002880ADF80040BDF80000288007
:102A3000B520ADF80000BDF8000030800220ADF8F0
:102A40000000BDF800002880ADF80040BDF800008F
:102A500028800320ADF80000BDF800002880ADF804
:102A60000040BDF8000028800421ADF80010BDF83A
:102A700000002880ADF80040BDF800002880B62096
:102A8000ADF80000BDF800003080ADF80040BDF8A2
:102A90000000288002E00000FE07006CADF8004056
:102AA000BDF8000028804FF0B709ADF80090BDF8E0
:102AB00000003080ADF80040BDF800002880ADF87F
:102AC0000040BDF8000028803F20ADF80000BDF8B0
:102AD00000002880ADF80040BDF8000028805E208E
:102AE000ADF80000BDF800002880ADF80040BDF84A
:102AF000000028804FF0640CADF800C0BDF8000065
:102B00002880ADF80040BDF8000028808C20ADF88A
:102B10000000BDF800002880ADF80040BDF80000BE
:102B20002880AC20ADF80000BDF800002880ADF88A
:102B30000040BDF800002880DC20ADF80000BDF8A2
:102B400000002880ADF80040BDF80000288070200B
:102B5000ADF80000BDF800002880ADF80040BDF8D9
:102B6000000028809020ADF80000BDF8000028800B
:102B7000ADF80040BDF800002880EB20ADF8000063
:102B8000BDF800002880ADF80040BDF800002880A6
:102B9000DC20ADF80000BDF800002880ADF8004052
:102BA000BDF800002880B820ADF80000BDF8000096
:102BB0003080ADF80040BDF800002880ADF800403E
:102BC000BDF800002880ADF80040BDF80000288066
:102BD000ADF80040BDF800002880ADF80040BDF819
:102BE00000002880ADF80040BDF800002880ADF856
:102BF0000040BDF800002880ADF80040BDF800009E
:102C00002880BA20ADF80000BDF8000030802420F4
:102C1000ADF80000BDF800202A80ADF80040BDF8F6
:102C200000202A80ADF80040BDF800202A80ADF8D1
:102C30000040BDF800202A80C122ADF80020BDF878
:102C4000002032802022ADF80020BDF800202A802C
:102C5000ADF80040BDF800202A805422ADF80020D5
:102C6000BDF800202A80ADF80040BDF800202A8081
:102C7000FF22ADF80020BDF800202A80ADF800400A
:102C8000BDF800202A80C222ADF80020BDF8002047
:102C900032800A22ADF80020BDF800202A80ADF86D
:102CA0000040BDF800202A80ADF80010BDF80010EB
:102CB0002980ADF80040BDF800102980C321ADF88F
:102CC0000010BDF8001031803C22ADF80020BDF8A6
:102CD00000102980ADF80040BDF8001029803A218D
:102CE000ADF80010BDF800102980ADF80040BDF827
:102CF000001029803921ADF80010BDF8001029809E
:102D0000ADF80040BDF8001029803721ADF8001063
:102D1000BDF800102980ADF80040BDF800102980F2
:102D2000ADF80020BDF800102980ADF80040BDF8D6
:102D3000001029803621ADF80010BDF80010298060
:102D4000ADF80040BDF8001029803221ADF8001028
:102D5000BDF800302B80ADF80040BDF800302B806E
:102D60002F23ADF80030BDF800302B80ADF80040C7
:102D7000BDF800302B802C23ADF80030BDF80030BA
:102D80002B80ADF80040BDF800302B802923ADF832
:102D90000030BDF800302B80ADF80040BDF80030A9
:102DA0002B802623ADF80030BDF800302B80ADF825
:102DB0000040BDF800302B80ADF80000BDF80030B9
:102DC0002B80ADF80040BDF800302B80ADF800003E
:102DD000BDF800302B80ADF80040BDF800302B80EE
:102DE0002323ADF80030BDF800302B80ADF8004053
:102DF000BDF800302B80ADF80020BDF800202A80FF
:102E0000ADF80040BDF800202A803622ADF8002041
:102E1000BDF800202A80ADF80040BDF800202A80CF
:102E2000ADF80010BDF800202A80ADF80040BDF8D4
:102E300000202A802F22ADF80020BDF800202A8033
:102E4000ADF80040BDF800202A802C22ADF800200B
:102E5000BDF800202A80ADF80040BDF800202A808F
:102E60002922ADF80020BDF800202A80ADF80040EE
:102E7000BDF800202A802622ADF80020BDF80020F1
:102E80002A80ADF80040BDF800202A80ADF800008F
:102E9000BDF800202A80ADF80040BDF800202A804F
:102EA000ADF80000BDF800002880ADF80040BDF886
:102EB000000028802320ADF80000BDF80000288025
:102EC000ADF80040BDF8000028804FF0C40BADF80D
:102ED00000B0BDF8000030806220ADF80000BDF801
:102EE00000002880ADF80040BDF8000028800527CC
:102EF000ADF80070BDF800002880ADF80040BDF8C6
:102F0000000028808420ADF80000BDF80000288073
:102F1000ADF80040BDF800002880F020ADF80000BA
:102F2000BDF800002880ADF80040BDF80000288002
:102F30001820ADF80000BDF800002880ADF8004072
:102F4000BDF800002880A420ADF80000BDF8000006
:102F50002880ADF80040BDF8000028801820ADF8AA
:102F60000000BDF800002880ADF80040BDF800006A
:102F700028805020ADF80000BDF800002880ADF892
:102F80000040BDF8000028800C20ADF80000BDF81E
:102F900000002880ADF80040BDF800002880172010
:102FA000ADF80000BDF800002880ADF80040BDF885
:102FB000000028809520ADF80000BDF800002880B2
:102FC000ADF80040BDF800002880F320ADF8000007
:102FD000BDF800002880ADF80040BDF80000288052
:102FE000E620ADF80000BDF800002880ADF80040F4
:102FF000BDF800002880C520ADF80000BDF8000035
:103000003080ADF80010BDF800002880ADF8004019
:10301000BDF8000028804420ADF80000BDF8000095
:103020002880ADF80040BDF8000028806520ADF88C
:103030000000BDF800002880ADF80040BDF8000099
:1030400028807620ADF80000BDF800002880ADF89B
:103050000040BDF8000028808821ADF80010BDF8C0
:1030600000002880ADF80040BDF800002880C62090
:10307000ADF80000BDF8000030802020ADF8000061
:10308000BDF800002880ADF80040BDF800002880A1
:103090001720ADF80000BDF800002880ADF8004012
:1030A000BDF8000028800120ADF80000BDF8000048
:1030B0002880ADF80040BDF800002880C720ADF89A
:1030C0000000BDF800003080ADF80040BDF8000001
:1030D0002880ADF80040BDF800002880ADF8004021
:1030E000BDF800002880ADF80040BDF80000288041
:1030F000C820ADF80000BDF800003080ADF80040F9
:10310000BDF800002880ADF80040BDF80000288020
:10311000ADF80040BDF800002880ADF80040BDF8D3
:1031200000002880C920ADF80000BDF80000308004
:10313000ADF80040BDF800002880ADF80040BDF8B3
:1031400000002880ADF80040BDF800002880ADF8F0
:103150000040BDF800002880ADF80040BDF8000038
:103160002880ADF80040BDF800002880ADF8004090
:10317000BDF800002880ADF80040BDF800002880B0
:10318000ADF80040BDF800002880ADF80040BDF863
:1031900000002880ADF80040BDF800002880ADF8A0
:1031A0000040BDF800002880ADF80040BDF80000E8
:1031B0002880ADF80040BDF800002880ADF8004040
:1031C000BDF800002880ADF80040BDF80000288060
:1031D000E020ADF80000BDF8002032801622ADF8E6
:1031E0000020BDF800202A80ADF80040BDF8002086
:1031F0002A804FF01C0AADF800A0BDF800202A80FC
:10320000ADF80040BDF800202A802122ADF8002052
:10321000BDF800202A80ADF80040BDF800202A80CB
:103220003622ADF80020BDF800202A80ADF800401D
:10323000BDF800202A804622ADF80020BDF800200D
:103240002A80ADF80040BDF800202A805222ADF857
:103250000020BDF800202A80ADF80040BDF8002015
:103260002A80ADF800C0BDF800202A80ADF80040EB
:10327000BDF800202A807A22ADF80020BDF8002099
:103280002A80ADF80040BDF800202A80ADF800800B
:10329000BDF800202A80ADF80040BDF800202A804B
:1032A0009922ADF80020BDF800202A80ADF800403A
:1032B000BDF800202A80A822ADF80020BDF800202B
:1032C0002A80ADF80040BDF800202A80B922ADF870
:1032D0000020BDF800202A80ADF80040BDF8002095
:1032E0002A80ADF800B0BDF800202A80ADF800407B
:1032F000BDF800202A80CA22ADF80020BDF80020C9
:103300002A80ADF80040BDF800202A80D222ADF816
:103310000020BDF800202A80ADF80040BDF8002054
:103320002A80D922ADF80020BDF800202A80ADF80F
:103330000040BDF800202A80ADF80000BDF8002054
:103340002A80ADF80040BDF800202A80F322ADF8B5
:103350000020BDF800302B80ADF80040BDF80030F3
:103360002B80E123ADF80030BDF800303380162308
:10337000ADF80030BDF800302B80ADF80040BDF84E
:1033800000302B80ADF800A0BDF800302B80ADF8E8
:103390000040BDF800302B802223ADF80030BDF88E
:1033A00000302B80ADF80040BDF800302B80362374
:1033B000ADF80030BDF800302B80ADF80040BDF80E
:1033C00000302B804523ADF80030BDF800302B8055
:1033D000ADF80040BDF800302B805223ADF800302E
:1033E000BDF800302B80ADF80040BDF800302B80D8
:1033F0006423ADF80030BDF800302B80ADF80040FC
:10340000BDF800302B807A23ADF80030BDF80030D5
:103410002B80ADF80040BDF800302B808B23ADF839
:103420000030BDF800302B80ADF80040BDF8003012
:103430002B809923ADF80030BDF800302B80ADF81B
:103440000040BDF800302B80A823ADF80030BDF857
:1034500000302B80ADF80040BDF800302B80B92340
:10346000ADF80030BDF800302B80ADF80040BDF85D
:1034700000302B80C423ADF80030BDF800302B8025
:10348000ADF80040BDF800302B80CA23ADF8003005
:10349000BDF800302B80ADF80040BDF800302B8027
:1034A000D223ADF80030BDF800302B80ADF80040DD
:1034B000BDF800302B80D823ADF80030BDF80030C7
:1034C0002B80ADF80040BDF800302B80ADF8000037
:1034D000BDF800002880ADF80040BDF8000028804D
:1034E000ADF80020BDF800002880ADF80040BDF820
:1034F00000002880E220ADF80000BDF80000308018
:10350000ADF80070BDF800002880ADF80040BDF8AF
:10351000000028800B20ADF80000BDF800002880D6
:10352000ADF80040BDF8000028801B20ADF8000079
:10353000BDF800002880ADF80040BDF800002880EC
:103540003420ADF80000BDF800002880ADF8004040
:10355000BDF8000028804420ADF80000BDF8003020
:103560002B80ADF80040BDF800302B804F23ADF824
:103570000030BDF800302B80ADF80040BDF80030C1
:103580002B806123ADF80030BDF800302B80ADF802
:103590000040BDF800302B807923ADF80030BDF835
:1035A00000302B80ADF80040BDF800302B80ADF826
:1035B0000010BDF800302B80ADF80040BDF80030A1
:1035C0002B809723ADF80030BDF800302B80ADF88C
:1035D0000040BDF800302B804FF0A608ADF8008009
:1035E000BDF800302B80ADF80040BDF800302B80D6
:1035F000CC46ADF80090BDF800302B80ADF800400F
:10360000BDF800302B804FF0C209ADF80090BDF836
:1036100000302B80ADF80040BDF800302B804FF01B
:10362000C70EADF800E0BDF800302B80ADF80040CB
:10363000BDF800302B80D123ADF80030BDF800700C
:103640002F80ADF80040BDF800702F80D627ADF870
:103650000070BDF800702F80ADF80040BDF800701C
:103660002F80DD27ADF80070BDF800702F80ADF819
:103670000040BDF800702F80ADF80020BDF800209C
:103680002A80ADF80040BDF800202A80E322ADF882
:103690000020BDF8002032800522ADF80020BDF8E2
:1036A00000202A80ADF80040BDF800202A800A22C0
:1036B000ADF80020BDF800202A80ADF80040BDF82C
:1036C00000202A80ADF800A0BDF800202A80ADF8C7
:1036D0000040BDF800202A803322ADF80020BDF85C
:1036E00000202A80ADF80040BDF800202A80ADF807
:1036F0000000BDF800202A80ADF80040BDF8002091
:103700002A805022ADF80020BDF800202A80ADF8B4
:103710000040BDF800202A806222ADF80020BDF8EC
:1037200000202A80ADF80040BDF800202A807822D1
:10373000ADF80020BDF800202A80ADF80040BDF8AB
:1037400000202A808A46ADF80010BDF800102980BC
:10375000ADF80040BDF8001029809721ADF80010A9
:10376000BDF800102980ADF80040BDF80010298098
:10377000ADF80080BDF800102980ADF80040BDF81C
:1037800000102980ADF800C0BDF800102980ADF808
:103790000040BDF800102980ADF80090BDF8001081
:1037A0002980ADF80040BDF800102980ADF800E098
:1037B000BDF800102980ADF80040BDF80010298048
:1037C000ADF80030BDF800102980ADF80040BDF81C
:1037D00000102980D521ADF80010BDF80010298017
:1037E000ADF80040BDF800102980DD21ADF80010D3
:1037F000BDF800102980ADF80040BDF80010298008
:10380000F321ADF80010BDF800202A80ADF800408B
:10381000BDF800202A80E422ADF80020BDF8002089
:1038200032800122ADF80020BDF800202A80ADF8DA
:103830000040BDF800202A800122ADF80020BDF82C
:1038400000202A80ADF80040BDF800202A80022226
:10385000ADF80020BDF800202A80ADF80040BDF88A
:1038600000202A802A22ADF80020BDF800202A80FE
:10387000ADF80040BDF800202A803C22ADF80020C1
:10388000BDF800202A80ADF80040BDF800202A8055
:103890004B22ADF80020BDF800202A80ADF8004092
:1038A000BDF800202A805D22ADF80020BDF8002080
:1038B0002A80ADF80040BDF800202A807422ADF8BF
:1038C0000020BDF800202A80ADF80040BDF800209F
:1038D0002A808422ADF80020BDF800202A80ADF8AF
:1038E0000040BDF800202A809322ADF80020BDF8EA
:1038F00000202A80ADF80040BDF800202A80A222D6
:10390000ADF80020BDF800202A80ADF80040BDF8D9
:1039100000202A80B322ADF80020BDF800202A80C4
:10392000ADF80040BDF800202A80BE22ADF800208E
:10393000BDF800202A80ADF80040BDF800202A80A4
:10394000ADF800B0BDF800202A80ADF80040BDF809
:1039500000202A80CD22ADF80020BDF800202A806A
:10396000ADF80040BDF800202A80D322ADF8002039
:10397000BDF800202A80ADF80040BDF800202A8064
:10398000DD22ADF80020BDF800202A80ADF800400F
:10399000BDF800202A80ADF80010BDF800202A8074
:1039A000ADF80040BDF800202A80E522ADF80020E7
:1039B000BDF800203280ADF80040BDF800202A801C
:1039C000ADF80040BDF800202A80ADF80040BDF8F9
:1039D00000202A80ADF80040BDF800202A80022295
:1039E000ADF80020BDF800202A80ADF80040BDF8F9
:1039F00000202A802922ADF80020BDF800202A806E
:103A0000ADF80040BDF800202A803C22ADF800202F
:103A1000BDF800202A80ADF80040BDF800202A80C3
:103A20004B22ADF80020BDF800202A80ADF8004000
:103A3000BDF800202A805D22ADF80020BDF80020EE
:103A40002A80ADF80040BDF800202A807422ADF82D
:103A50000020BDF800202A80ADF80040BDF800200D
:103A60002A808422ADF80020BDF800202A80ADF81D
:103A70000040BDF800202A809322ADF80020BDF858
:103A800000202A80ADF80040BDF800202A80A22244
:103A9000ADF80020BDF800202A80ADF80040BDF848
:103AA00000202A80B322ADF80020BDF800202A8033
:103AB000ADF80040BDF800202A80BE22ADF80020FD
:103AC000BDF800202A80ADF80040BDF800202A8013
:103AD000C422ADF80020BDF800202A80ADF80040D7
:103AE000BDF800202A80CD22ADF80020BDF80020CE
:103AF0002A80ADF80040BDF800202A80D322ADF81E
:103B00000020BDF800202A80ADF80040BDF800205C
:103B10002A80DC22ADF80020BDF800202A80ADF814
:103B20000040BDF800202A80ADF80010BDF800105C
:103B30002980ADF80040BDF800102980E621ADF8DD
:103B40000010BDF8001031801121ADF80010BDF853
:103B500000102980ADF80040BDF800102980342104
:103B6000ADF80010BDF800102980ADF80040BDF898
:103B7000001029804FF0560EADF800E0BDF800109F
:103B80002980ADF80040BDF8001029804FF0760C78
:103B9000ADF800C0BDF800102980ADF80040BDF8B8
:103BA000001029804FF0770BADF800B0BDF8001081
:103BB0002980ADF80040BDF8001029806622ADF8DC
:103BC0000020BDF800102980ADF80040BDF80010BD
:103BD00029808821ADF80010BDF800102980ADF8CB
:103BE0000040BDF8001029809921ADF80010BDF803
:103BF00000302B80ADF80040BDF800302B804FF036
:103C0000BB08ADF80080BDF800302B80ADF8004057
:103C1000BDF800302B80ADF80010BDF800302B80CF
:103C2000ADF80040BDF800302B806623ADF80030C1
:103C3000BDF800302B80ADF80040BDF800302B807F
:103C40005527ADF80070BDF800302B80ADF800406E
:103C5000BDF800302B80ADF80070BDF800302B802F
:103C6000ADF80040BDF800302B804523ADF80030A2
:103C7000BDF800302B80ADF80040BDF800302B803F
:103C80004323ADF80030BDF800302B80ADF8004084
:103C9000BDF800302B80ADF80000BDF800302B805F
:103CA000ADF80040BDF800302B80E723ADF80030C0
:103CB000BDF8003033803223ADF80030BDF800305D
:103CC0002B80ADF80040BDF800302B80ADF80070BF
:103CD000BDF800302B80ADF80040BDF800302B80DF
:103CE000ADF800C0BDF800302B80ADF80040BDF845
:103CF00000302B80ADF80020BDF800302B80ADF8EF
:103D00000040BDF800302B806723ADF80030BDF8CF
:103D100000C0A5F800C0ADF80040BDF800C0A5F88F
:103D200000C0ADF80030BDF800302B80ADF8004089
:103D3000BDF800302B808723ADF80030BDF800308F
:103D40002B80ADF80040BDF800302B80ADF800109E
:103D5000BDF800302B80ADF80040BDF800302B805E
:103D6000C146ADF80080BDF800302B80ADF80040B2
:103D7000BDF800302B80ADF80010BDF800302B806E
:103D8000ADF80040BDF800302B805B46ADF800B0C8
:103D9000BDF800C0A5F800C0ADF80040BDF800C0F7
:103DA000A5F800C0ADF80000BDF800C0A5F800C03F
:103DB000ADF80040BDF800C0A5F800C0ADF800E0C7
:103DC000BDF800C0A5F800C0ADF80040BDF800C0C7
:103DD000A5F800C04FF0230CADF800C0BDF800C03E
:103DE000A5F800C0ADF80040BDF800C0A5F800C0BF
:103DF0004FF0330CADF800C0BDF800C0A5F800C00E
:103E0000ADF80040BDF800C0A5F800C04FF0450C6B
:103E1000ADF800C0BDF800C0A5F800C0ADF8004086
:103E2000BDF800C0A5F800C04FF0E80CADF800C028
:103E3000BDF800C0A6F800C0ADF80040BDF800C055
:103E4000A5F800C0ADF80040BDF800C0A5F800C05E
:103E5000ADF80010BDF800C0A5F800C0ADF80040F6
:103E6000BDF800C0A5F800C04FF0870CADF800C049
:103E7000BDF800C0A5F800C0ADF80040BDF800C016
:103E8000A5F800C0D446ADF800A0BDF80080A5F8A4
:103E90000080ADF80040BDF80080A5F80080ADF8C6
:103EA0000030BDF800302B80ADF80040BDF8003088
:103EB0002B80ADF80020BDF800302B80ADF800401D
:103EC000BDF800302B80ADF800C0BDF800302B806D
:103ED000ADF80040BDF800302B80AA23ADF80030CB
:103EE000BDF800C0A5F800C0ADF80040BDF800C0A6
:103EF000A5F800C0ADF80090BDF800C0A5F800C05E
:103F0000ADF80040BDF800C0A5F800C0ADF8001045
:103F1000BDF800102980ADF80040BDF800102980E0
:103F2000ADF80020BDF800102980ADF80040BDF8C4
:103F300000102980ADF80070BDF800102980ADF8A0
:103F40000040BDF800102980ADF80070BDF80010E9
:103F50002980ADF80040BDF800102980ADF80000C0
:103F6000BDF800102980ADF80040BDF80010298090
:103F7000ADF80000BDF800002880ADF80040BDF8A5
:103F800000002880ADF80070BDF800002880ADF872
:103F90000040BDF800002880E920ADF80000BDF821
:103FA00000003080ADF80030BDF800002880ADF88A
:103FB0000040BDF800002880ADF80040BDF80000CA
:103FC0002880ADF80040BDF800002880ADF8004022
:103FD000BDF800003080ADF80030BDF8000028804A
:103FE000CF20ADF80000BDF800003080ADF80040F3
:103FF000BDF800002880ADF80040BDF80000288022
:10400000ADF80040BDF800002880ADF80040BDF8D4
:1040100000002880ADF80040BDF800002880ADF811
:104020000040BDF800002880ADF80040BDF8000059
:104030002880ADF80040BDF800002880ADF80040B1
:10404000BDF800002880ADF80040BDF800002880D1
:10405000ADF80040BDF800002880ADF80040BDF884
:1040600000002880ADF80040BDF800002880ADF8C1
:104070000040BDF800002880ADF80040BDF8000009
:104080002880ADF80040BDF800002880ADF8004061
:10409000BDF800002880F020ADF80000BDF8000059
:1040A0003080ADF80040BDF8000028805020ADF809
:1040B0000000BDF800002880ADF80040BDF8000009
:1040C0002880ADF80040BDF800002880ADF8004021
:1040D000BDF800002880F320ADF80000BDF8000016
:1040E0003080ADF80040BDF800002880F920ADF820
:1040F0000000BDF8000030800620ADF80000BDF8DB
:10410000000028801020ADF80000BDF800002880D5
:104110004FF02908ADF80080BDF800002880ADF808
:104120000040BDF8000028803A20ADF80000BDF83E
:1041300000003080ADF80070BDF80000288011202C
:10414000ADF80000BDF8000030806420FCF7CCFD25
:10415000ADF80080BDF8000030803520ADF80000DB
:10416000BDF800003080ADF80040BDF800002880A8
:104170005120ADF80000BDF800003080FF20ADF800
:104180000000BDF8000028805320ADF80000BDF805
:10419000000030802C20ADF80000BDF80010298010
:1041A000ADF80070BDF8001031808221ADF800102C
:1041B000BDF800102980ADF80000BDF80000308087
:1041C000BDE8F88F38B51DF087F810F079F8214C6C
:1041D000092120611CF01BF8B4F90200052100EB55
:1041E000400090FBF1F001B2142220691CF039F973
:1041F0000022642120691CF03FFA00226421164845
:104200001FF024F81DF068F816F02AFE13A1E060F4
:1042100017F090FC00226169E0681CF07FFA0A2028
:104220000090D4E9030100230E2218F0CFFC1DF00A
:1042300053F816F015FE0BA1A06017F07BFC0022CE
:104240006169E0681CF06AFAA068BDE8384009219D
:104250001BF0DDBF44000020697B02084C4F414445
:104260002E2E2E002530000010B58EB01C21684681
:10427000FBF7E4FF1C2107A8FBF7E0FF1C484FF009
:104280002041102201601B4941600621816000210C
:10429000C160C0E904128161C16113020162C0E919
:1042A00009139302C0E90B13416381630F203C2380
:1042B0000090CDE9010303AC112384E80E0009242A
:1042C0000691CDE9074009AC082084E80F000D9164
:1042D00007AA69460648FDF71DFA08B1FCF78BFCF2
:1042E0000548C16941F48061C1610EB010BD000094
:1042F00068020020040100A00000014010B586B053
:10430000002000900190029003901D48816941F0C7
:1043100004018161816901F004010491816941F026
:1043200008018161816901F008010491816941F40A
:1043300080718161816901F480710491816941F02A
:1043400040018161816901F040010491816941F07E
:104350002001816180690B4C00F020000490002254
:1043600001212046FCF713FE01210320CDE90210B4
:104370000091019169462046FCF708FD06B010BD8A
:1043800000100240000C0140104810B50E490160B9
:104390004FF48271416000218160C1604FF400726E
:1043A0000161C0E905121022C0E907214162816262
:1043B0000A21C162FDF7FAF8002803D0BDE81040D9
:1043C000FCF719BC10BD000000300140B002002015
:1043D0000F4810B50D4901604FF482714160002112
:1043E0008160C1604FF400720161C0E90512C161D2
:1043F0000162416281620A21C162FDF7D7F800289B
:1044000003D0BDE81040FCF7F6BB10BD003C0040F7
:104410000803002010B586B000241C4800940194C5
:1044200002940394049418490594016041F61F41D5
:10443000C0E901146321C0E903148021C0E90541EA
:10444000FDF7FCF908B1FCF7D6FB032201211A2085
:10445000FCF70EFE1A20FCF7FDFD4FF48050009093
:1044600069460A48FDF76CFA08B1FCF7C4FB0494EE
:1044700004A906480594FDF7A3F9002801D0FCF72C
:10448000BAFB06B010BD0000002C014020ED00205A
:104490000C4810B50A4901604FF4E1314160002138
:1044A00081600C22C160C0E904128161C161FDF725
:1044B00080FB002803D0BDE81040FCF79CBB10BD7A
:1044C0000038014060030020FEE7FEE770477047B8
:1044D00010B5FCF754F880B210BDFCF763BD30B5E1
:1044E0008FB028216846FBF7A9FE14210AA8FBF724
:1044F000A5FE01210804CDE9001000240294022544
:104500000491CDE907504FF4E01009906846FCF79C
:10451000BDFE08B172B6FEE70F20CDE90A054FF4E3
:104520008060CDE90C4002210AA80E94FCF7D2FD70
:10453000002801D072B6FEE70FB030BD7047000012
:104540000148FDF76CBA000020ED0020F0B50268CC
:104550001C4B1D4D1D4E1E4F1E4C4FF0804C984263
:1045600009D0A04207D0604505D0A84203D0B04290
:1045700001D0B84204D122F0700E4A6842EA0E021D
:10458000984209D0A04207D0604505D0A84203D088
:10459000B04201D0B84203D122F44075CA682A4320
:1045A0004D6922F080022A4302608A68C2620A686A
:1045B0008262984201D0A04201D1096901630121C0
:1045C0004161F0BD002C01400004004000080040A3
:1045D000000C00400034014010B5846842EA032218
:1045E00024F47F440A432243826010BD826822F093
:1045F00070020A4342F007018160704710B5036AF8
:10460000046A24F001040462846924F0F00444EA9A
:10461000021423F00A020A438461026210BD10B53D
:10462000036A046A24F010040462846923F0A0037E
:1046300024F4704444EA023243EA011182610162C7
:1046400010BD00002DE9F04FFE4C0025DFF8F88387
:104650008FB02577D8F820002E462F4680471023AC
:10466000FAA2282164200096FDF71CFF4FF4784B36
:1046700014215A46084600F049FADFF8DC93DFF8C7
:10468000DCA30126012000F085FA207FB6EB901F05
:1046900047D120F04000207705A8218920F8251077
:1046A00000EB85006D1C0027618AEDB24180012D71
:1046B00006D0022D11D0032D1FD0042D31D13BE0A7
:1046C00014214FF6FF72084600F020FAB8F80200F5
:1046D0005A46143880B2142121E0B8F802004FF68F
:1046E000FF72143880B2142100F010FAB8F80400F8
:1046F0005A46143881B2142011E0B8F804004FF67D
:10470000FF72143881B2142000F000FAB8F80400E7
:104710005A46143881B2B8F80200143880B200F05A
:10472000F5F90A2004F048FC7F1CBFB2B7F57A7F88
:10473000A8D90FB0BDE8F08FB8F80410B8F802009F
:104740001439143889B280B24FF6FF7200F0DEF9E6
:10475000BDF81400BDF81C10451A00D56D42BDF817
:104760001600BDF81E10401A00D5404240436D436C
:1047700000902844FBF7F6FE20F0BEFFFBF72CFF6D
:104780000A902946B6A0009A00F0F2FABDF8180087
:10479000BDF82010451A00D56D42BDF81A00BDF8CD
:1047A0002210401A00D5404240436D4300902844F7
:1047B000FBF7D8FE20F0A0FFFBF70EFF099029467B
:1047C000ADA0009A00F0D4FABDF81C000DF1040C65
:1047D000BDF82230BDF82020BDF81E108CE80F0077
:1047E000BDF81A000090BDF81830BDF81620BDF8CD
:1047F0001410A74800F0BCFA0998FBF7AEFE054676
:104800000A98FBF7AAFE2946FBF7CBFD0546FBF706
:10481000FCFECDE90001DDE909219EA000F0A8FA27
:104820004D4501DD554501DDA0A03CE0BDF814007B
:10483000BDF81810411A00D54942BDF81600BDF860
:104840001A20801A00D54042494340430844FBF7F0
:1048500089FE20F051FFFBF7BFFE0A90BDF81C0057
:10486000BDF82010411A00D54942BDF81E00BDF820
:104870002220801A00D54042494340430844FBF7B8
:1048800071FE20F039FFFBF7A7FEFBF766FE054639
:104890000A98FBF762FE2946FBF783FD484501DDD8
:1048A000504513DD82A000F063FAD8F820000025FF
:1048B000804714215A46084600F028F910237DA2AB
:1048C000282164200096FDF7EDFDDBE6BDF8180019
:1048D000BDF81C10411A00D54942BDF81A00BDF8B8
:1048E0001E20801A00D54042494340430844FBF74C
:1048F00039FE20F001FFFBF76FFE0A90BDF81400AF
:10490000BDF82010411A00D54942BDF81600BDF887
:104910002220801A00D54042494340430844FBF717
:1049200021FE20F0E9FEFBF757FEFBF716FE0546D9
:104930000A98FBF712FE2946FBF733FD484501DDD7
:10494000504501DD60A0AEE7BDF81800BDF81410B9
:1049500083468A46401AFBF7F7FD8146B8F8020005
:10496000454607462838FBF7EFFD4946FBF719FD9A
:10497000814620620BEB0A00FBF7EFFD4946FBF78F
:10498000DEFC80463846FBF7E8FD4146FBF7D1FCEC
:104990004FF0FF31FBF743FDFBF7F1FD2085BDF83C
:1049A0001E00BDF8161083468A46401AFBF7CCFD60
:1049B0000746A88880462838FBF7C6FD3946FBF72E
:1049C000F0FC6062074603900BEB0A00FBF7C5FDA5
:1049D0003946FBF7B4FC07464046FBF7BEFD3946B7
:1049E000FBF7A7FC4FF0FF31FBF719FDFBF7C7FD05
:1049F00060854846FBF7C3FD002800DA40420228E4
:104A000007DC0398FBF7BBFD002800DA40420228D0
:104A100008DD286A804710232CA2282164200096F4
:104A2000FDF740FD286A8047102333A22821642027
:104A30000096FDF737FD4FF47A7004F0BDFA286A4E
:104A4000804776E618000020A8030020545020413B
:104A5000646A7573740000003333733F6666863F83
:104A6000313A202074656D313D25642C2074656DCC
:104A7000323D25640A000000323A202074656D3111
:104A80003D25642C2074656D323D25640A000000CC
:104A90004CDC020864313D25642C2064323D2564E1
:104AA0002C20206661633D25660A0000310A000063
:104AB000320A00006661696C656420746F2061646D
:104AC0006A75737421000000330A00005468652081
:104AD0006F7269656E746174696F6E206F662074A1
:104AE00068652073637265656E20697320726576F0
:104AF000657273656421000061646A757374207364
:104B000075636365737366756C2100002DE9F84F5A
:104B1000054616460D30009282B2A5F10C000C46F7
:104B200080B20B46FDF719FB04F10C0083B2183874
:104B300081B22A4610460096FDF70FFB04F10109E9
:104B400005F1010A1FFA89F11FFA8AF03246FDF7D2
:104B50003FFBA4F101086F1E1FFA88F1B8B232467C
:104B6000FDF736FB1FFA89F1B8B23246FDF730FB8C
:104B70001FFA88F11FFA8AF03246FDF729FB01205F
:104B800000903346062221462846FDF743FABDE849
:104B9000F88F000070B505464FF480612448FCF79B
:104BA000F1F9244C30B1207F010636D520F0800089
:104BB000207739E01F491231A1F10A0023F075F87E
:104BC0000DBBB4F92800FBF7BFFC05462089FBF7B5
:104BD000C4FC216AFBF7B3FB2946FBF758FBFBF744
:104BE000E7FC2081B4F92A00FBF7AEFC0546608A99
:104BF000FBF7B3FC616AFBF7A2FB2946FBF747FB17
:104C0000FBF7D6FC6082207F00060DD4C020207701
:104C100020892082608A608306E0002020826083F1
:104C20004FF6FF7020816082207F00F0800070BD11
:104C3000001C01401800002070B50446006801699E
:104C4000E26821F44051114301612169A0680843E1
:104C5000616908432168CA6841F20C639A430243C0
:104C6000CA6020684169A26921F440711143416121
:104C70001E492068884202D1FCF7D2FA01E0FCF715
:104C8000BFFA00EBC00101EB0012606864218000F4
:104C9000B2FBF0F3B3FBF1F36FF018067343B2FB12
:104CA000F0F5B2FBF0F605EB8305322303EB0515B7
:104CB000B5FBF1F5B6FBF1F605F0F00505EB0615D1
:104CC000B2FBF0F6B2FBF0F0B0FBF1F06FF01802BF
:104CD000504306EB800003EB0010B0FBF1F02168BD
:104CE00000F00F002844886070BD000000380140CB
:104CF0002DE9F041984617460E460446069D27E0EA
:104D0000681C25D02DB1FCF747F9A0EB0800A8429C
:104D10001ED920680C3050E8001F21F4D07140E803
:104D20000012002AF5D12068143050E8001F21F04D
:104D3000010140E80012002AF5D1202084F841004A
:104D400084F84200002084F840000320BDE8F08190
:104D50002068006836EA000004D00020B842CFD0B6
:104D60000020F3E70120F9E700B270477047FEE743
:104D70000FB4054B10B503A9044A029801F05AFE7E
:104D800010BC5DF814FB0000890C010860020020D3
:104D90000907090E002804DB00F1E02080F8001468
:104DA000704700F00F0000F1E02080F8141D7047FC
:104DB00002E008C8121F08C1002AFAD170477047E4
:104DC000002001E001C1121F002AFBD17047000042
:104DD00001490860704700006402002070B5044675
:104DE00000256FF02F0608E02068411C2160007844
:104DF00005EB850106EB410145182068007800F0BD
:104E0000C7F80028F0D1284670BD00002DE9FF5FEB
:104E100082B00021DDE90430020DDDF840B003432B
:104E200018D044F61050A2F2FF32424315141198E4
:104E300001281FD0A5EB0B00401C5FEA000A4FF0D1
:104E400000064E4FDFF83891B046504615D5CAF1EE
:104E5000000413E0119801244AA3012801D16FEA4C
:104E60000B010298119AC0E90031C0E9024206B074
:104E7000BDE8F09FCBF10000DFE704460021404A87
:104E8000491842EB0450CDE9001012E0E00707D0CA
:104E900032463B4640464946FBF7CDFA80468946B6
:104EA00032463B4610461946FBF7C5FA06460F4602
:104EB0006410002CEAD1DDE90401DDE90023BAF138
:104EC000000F06DAFBF7B7FA42464B46FBF7B3FA98
:104ED00005E0FBF70DFD42464B46FBF709FD044696
:104EE0000E460022284BFBF7DBFD03D84FF0FF30C6
:104EF000014607E00022254B20463146FBF751FCD6
:104F0000FBF7B6FD102409E0002C0ADB0A2200237F
:104F1000FBF72CF9039B30321A55641E50EA01024C
:104F2000F2D1641C039AC4F111031444119A012AAA
:104F300003D0012208430DD10AE0084304D0002029
:104F40004FF0110B119072E7A3EB0B056D1E0DE0F6
:104F50005B4504DD4FF0000205F1010504E003DAD2
:104F60004FF00002A5F10105002AECD0029811993A
:104F7000C0E90231C0E9004579E7000000001440B3
:104F80000000F03F300000000000F0430000E03F70
:104F90003038092801D801207047002070470000F0
:104FA00010B54021074801F081F800221E21064873
:104FB0001EF04CF9054CA06002F04CFC0020207063
:104FC00010BD0000542B0020FD780008E4010020F3
:104FD00070B5B1F90030B2F90040A34200DC2346BD
:104FE0000380B1F90250B2F90240A54200DD2C461F
:104FF0004480B1F90460B2F90450AE4200DA35469B
:105000008580B1F90610B2F90620914200DB114605
:10501000C1800120AB4201DC8C4200DD002070BD6C
:10502000F8B50D460446B0F90000B1F90010164677
:10503000884247DBB4F90210B5F90220914241DB06
:10504000B4F90410B5F9042091423BDCB4F9061020
:10505000B5F90620914235DC96B3ADF800006088C2
:10506000ADF8020032466946284600F099F800285B
:1050700027D0A088ADF800006088ADF80200324665
:105080006946284600F08CF800281AD02088ADF830
:105090000000E088ADF8020032466946284600F07C
:1050A0007FF800280DD0A088ADF80000E088ADF8AA
:1050B000020032466946284600F072F8002800D007
:1050C0000120F8BD0020F8BDB0F90020B1F904308E
:1050D0009A4213DCB0F90420B1F900309A420DDB9A
:1050E000B0F90220B1F906309A4207DCB0F90600A7
:1050F000B1F90210884201DB01207047002070479F
:10510000F8B50D460446B0F90400B1F90010164692
:10511000884243DBB4F90600B5F9021088423DDB52
:10512000B4F90000B5F90410884237DCB4F9021074
:10513000B5F90620914231DC76B3ADF80000608805
:10514000ADF8020032466946284600F029F818BB3F
:10515000A088ADF800006088ADF8020032466946CC
:10516000284600F01DF8B8B92088ADF80000E088A6
:10517000ADF8020032466946284600F011F858B9E9
:10518000A088ADF80000E088ADF80200324669461C
:10519000284600F005F808B10020F8BD0120F8BD50
:1051A0002DE9FC4114460E46B1F90020B0F900107B
:1051B00005468A423ADBB5F90400824236DCB6F98C
:1051C0000270B5F90220974230DBB5F906309F42F4
:1051D0002CDC002C75DD401A9A1A401C521C00B2BF
:1051E00012B200EBD07002EBD2724010521090421B
:1051F00000DB1046844200DD0446ADF8001028882C
:1052000000222044ADF804006888ADF802006888E8
:1052100031462044ADF806006846FFF7C1FF40B1B3
:10522000BDF804002044ADF804003FE00020BDE8D4
:10523000FC81E8880022001BADF80200E888ADF888
:10524000060031466846FFF7ABFF28B1BDF8040001
:105250002044ADF8040011E0A8880022001BADF83E
:105260000000A888ADF8040031466846FFF798FFB3
:1052700050B1BDF80000001BADF80000BDF8020001
:10528000001BADF8020016E06888ADF802006888DF
:1052900000222044ADF8060031466846FFF780FF43
:1052A00070B1BDF80000001BADF80000BDF80600AD
:1052B0002044ADF80600314668461BF0F5FAB6E723
:1052C000FFE70120B3E710B5B1F90040B2F90030B3
:1052D0009C4200DA23460380B1F90240B2F9023061
:1052E0009C4200DA23464380B1F90440B2F904300D
:1052F0009C4200DD23468380B1F90610B2F90620F6
:10530000914200DC1146C18010BD0000FEB5074689
:105310001DF038FF0025354C0646009537B1F8687A
:10532000606038461EF060F8606802E011F062F8D4
:10533000606000691BF054FA6068406908B11BF0B6
:105340004FFA6068C0691BF04BFA6068006A1BF096
:1053500047FA60680169E1B31BF002FD1BF07EFCB7
:105360006068B0F8501199B30168097C890715D5B8
:1053700011F09EF8401E07B2606811F053F8401E0D
:1053800003B20022114601A800970EF0FFFE6068EC
:1053900001A90268926B516004F0BAFD60684FF495
:1053A0008071303017F03CF86068202100F598706B
:1053B00017F036F86068A0F8505130461DF0DCFE5A
:1053C000009060680068436A13B1226800999847AA
:1053D00000E007E016F066FE00F036F8BDE8FE409B
:1053E00000F006B8A0F85051FEBD0000A00000205B
:1053F00070B50A4D002400BFC4EBC40655F8260062
:1054000008B116F0C3FE05EB86001C2117F008F862
:10541000641CE4B2042CEFD370BD0000302C0020DB
:10542000084949680AE04A68824202D00A68824212
:1054300003D10A7E42F001020A7649690029F2D1BD
:1054400070470000740000207047000004210148EC
:1054500000F02CBE482B00201C21014800F026BE85
:10546000602B00202DE9FF5F0446DDE90E0613B92D
:10547000B0F5807F7ED0B6F900504FF0FF376D4217
:10548000454307EB25252DB22580B6F902C0CCF1A6
:10549000000C0CFB00FC07EB2C273FB26780B6F931
:1054A00000C0A1EB0C0141434FF0020C0CEB212199
:1054B00009B2A180B6F90280A2EB080242430CEBCC
:1054C000222000B2E080002B7ED04FF00A0A93FB2E
:1054D000FAF5684200EB800003EB400705F1010993
:1054E00028B21EF0C1F800900FFA89F01EF0BCF847
:1054F00083465A3528B21EF0B7F8804609F15A00A3
:1055000000B21EF0B1F80146009AC7F10A0000FB94
:1055100002F300FB08F00BFB073301FB070193FBD1
:10552000FAF291FBFAF04FEA601AB4F90010B4F9FC
:1055300002000AFB01FCCDF80CC05511378805FBB1
:1055400010C207EBA2220FFA82F905FB01F2BB465B
:10555000029277880AFB002107EBA1210BB2B4F974
:105560000410BE460AFB01FC05FB10C20BEBA22295
:1055700016B200E02FE005FB01F7CDE9007CB4F99D
:105580000680DDF80CC00AFB007005FB18C1DDF8D1
:1055900004C0009F05FB18C5029A0AFB087C0AFBA1
:1055A00008220BEBA1210EEBAC270EEBA02009B2D9
:1055B0000EEBA2220BEBA5250FFA87FC00B212B26C
:1055C0002DB24F46494500E00EE000DA0F46B542E5
:1055D00016DAA84615E000202080491E6080A180D0
:1055E000521EE280BDE8FF9F32882A4422807288E2
:1055F0003A44628032881144A180718808444FE0A7
:10560000B046474504DA4F46494506DA0F4604E0FE
:10561000B54201DA2F4600E0374627804F4649451C
:1056200000DD0F46B54201DDA84600E0B046474523
:1056300003DD4D46494505DC01E0B54201DD294663
:1056400000E03146A1809A4201DA154600E01D468D
:10565000844501DA614600E001468D4205DA9A424E
:1056600001DA114606E0194604E0844501DA614694
:1056700000E0014661809A4201DD114600E01946D2
:10568000844501DD654600E00546A94205DD9A42F4
:1056900001DD104604E0184602E0844500DD604666
:1056A000E0809FE72DE9FE4F0446D0F800B0B0F946
:1056B0000800E589081AB4F90A10511AD4E9093228
:1056C000B5F5807F38D0A589ADB3A66B7043451181
:1056D0004E437011266BE16A06FB05F701FB10775C
:1056E000694306FB001003EBA72902EBA0208046CC
:1056F0000612B4F904004FEA2927B8424EDD002F04
:105700004CDBB4F90610B14248DD002E46DB94F8BC
:1057100034104A0745D58A0704F1140322D400FB4C
:10572000067045004FF0020A0BEB05015246184681
:1057300016F02CFE27E00DE0256BE66A05FB00F76E
:1057400006FB1177464305FB016003EBA70902EB5B
:10575000A000CCE7A56B68434D4303EB601902EB57
:105760006510C4E700FB067000EB40054FF0030A2C
:105770000BEB05010222184616F008FEE81C5844FF
:1057800010F8010CA07594F83400C0071FD04FF436
:10579000FC60ADF80000A18A814218D10020BDE86C
:1057A000FE8F32B204F118002369CDE90102002511
:1057B00039B2AA468B4614F03DF90090BDF80000BE
:1057C000A082DDE90102594614F0CCF8DAE7E07C6A
:1057D00078B1A4F83C90A4F83E80A4F84070A4F8F6
:1057E0004260656484F848A02046BDE8FE4F00F0A2
:1057F00002B80120D3E72DE9F04F044690F83C10A1
:10580000D0F8009090F83E0087B04FF0FF36702936
:1058100007DAB4F940203546012A00D50025803149
:105820000DE0902916DDB4F94020B4F904300125CB
:10583000521C9A4200DB0025A1F27F114942C9B2F5
:105840008846702809DAB4F94210012900D50026EB
:10585000803010E00025FF21F2E790280DDDB4F93B
:105860004210B4F906200126491C914200DB0026B3
:10587000A0F27F104042C7B201E00026FF27606916
:105880000090A07D0590002082468346049094F805
:105890003400400744D594F84810606C022201FBA4
:1058A0000501494401A816F071FDB4F9040094F80B
:1058B000481002224843616C06FB0011494403A8CA
:1058C00016F064FDB4F9041094F84800626C41438A
:1058D00006FB012200FB05901118022202A816F017
:1058E00055FD94F83400800761D594F84800616C48
:1058F00000EB090200FB0513134413F8013C049369
:10590000B4F90430434306FB031100FB05000A44CD
:10591000014401EB090012F801AC10F8010C45E05C
:10592000B4F84000B4F94220284401B204F1180050
:105930008146236914F07EF80190B4F84200B4F96E
:105940004010304402B254F8103F484614F072F848
:105950000390608E2368304402B2208E284401B246
:10596000484614F067F8029094F82400103C800731
:105970001DD5B4F9422034F8400F284401B24846FE
:1059800013F0F0FF04906088B4F90010304402B2C4
:10599000484613F0E7FF82466088304402B234F88C
:1059A0004009284401B2484613F0DCFF834694F8CE
:1059B000340042464546800735D50599049B01FBD6
:1059C00008F1C8F1FF0003FB00110AFB08F30BFB11
:1059D0000030C1F30721C0F3072001FB07F3C7F133
:1059E000FF0600FB06331B0AA375022907D802280D
:1059F00003D8002007B0BDE8F08F002702E002289E
:105A000000D8FF270598022800D800220498022811
:105A100000D8FF22BAF1020F00D80025BBF1020F17
:105A200003D8FF2501E0FF20A075EAB1FF2A04D0CA
:105A3000DDE9000110F0D8F80090BDB1FF2D17D0BE
:105A4000DDE902102A4610F0CFF8049097B1FF2F3D
:105A500005D001463A46009810F0C6F80090BDF80F
:105A60000000A0820120C5E70198E5E70298ECE775
:105A70000398EAE7BDF81000F3E700002DE9F047CE
:105A80000446B0F908000A2700026062B4F90A006F
:105A90000002A062B4F90C1091FBF7F5684200EB2C
:105AA000800001EB4006684205F1010800B21DF0DC
:105AB000DBFD8246E84300B21DF0D6FD8146C5F10C
:105AC0005A0000B21DF0D0FD0546C8F15A0000B2E0
:105AD0001DF0CAFDC6F10A0101FB0AF3024609FBEB
